{
  "_format": "hh-sol-artifact-1",
  "contractName": "Venta",
  "sourceName": "contracts/Venta.sol",
  "abi": [
    {
      "anonymous": false,
      "inputs": [
        {
          "indexed": true,
          "internalType": "address",
          "name": "previousOwner",
          "type": "address"
        },
        {
          "indexed": true,
          "internalType": "address",
          "name": "newOwner",
          "type": "address"
        }
      ],
      "name": "OwnershipTransferred",
      "type": "event"
    },
    {
      "anonymous": false,
      "inputs": [
        {
          "indexed": false,
          "internalType": "uint256",
          "name": "productId",
          "type": "uint256"
        },
        {
          "indexed": false,
          "internalType": "uint256",
          "name": "tickerId",
          "type": "uint256"
        }
      ],
      "name": "PayReleased",
      "type": "event"
    },
    {
      "anonymous": false,
      "inputs": [
        {
          "indexed": false,
          "internalType": "uint256",
          "name": "productId",
          "type": "uint256"
        },
        {
          "indexed": false,
          "internalType": "uint256",
          "name": "ticketId",
          "type": "uint256"
        }
      ],
      "name": "ProductPaid",
      "type": "event"
    },
    {
      "anonymous": false,
      "inputs": [
        {
          "indexed": false,
          "internalType": "uint256",
          "name": "productId",
          "type": "uint256"
        },
        {
          "indexed": false,
          "internalType": "uint256",
          "name": "ticketId",
          "type": "uint256"
        }
      ],
      "name": "ProductRefunded",
      "type": "event"
    },
    {
      "anonymous": false,
      "inputs": [
        {
          "indexed": false,
          "internalType": "uint256",
          "name": "productId",
          "type": "uint256"
        }
      ],
      "name": "ProductSubmitted",
      "type": "event"
    },
    {
      "anonymous": false,
      "inputs": [
        {
          "indexed": false,
          "internalType": "uint256",
          "name": "productId",
          "type": "uint256"
        },
        {
          "indexed": false,
          "internalType": "uint256",
          "name": "stockAdded",
          "type": "uint256"
        }
      ],
      "name": "StockAdded",
      "type": "event"
    },
    {
      "anonymous": false,
      "inputs": [
        {
          "indexed": false,
          "internalType": "uint256",
          "name": "productId",
          "type": "uint256"
        },
        {
          "indexed": false,
          "internalType": "uint256",
          "name": "stockRemoved",
          "type": "uint256"
        }
      ],
      "name": "StockRemoved",
      "type": "event"
    },
    {
      "inputs": [
        {
          "internalType": "uint256",
          "name": "productId",
          "type": "uint256"
        },
        {
          "internalType": "uint256",
          "name": "stockToAdd",
          "type": "uint256"
        }
      ],
      "name": "addStock",
      "outputs": [],
      "stateMutability": "nonpayable",
      "type": "function"
    },
    {
      "inputs": [],
      "name": "getProductsIds",
      "outputs": [
        {
          "internalType": "uint256[]",
          "name": "",
          "type": "uint256[]"
        }
      ],
      "stateMutability": "view",
      "type": "function"
    },
    {
      "inputs": [],
      "name": "getTicketsIds",
      "outputs": [
        {
          "internalType": "uint256[]",
          "name": "",
          "type": "uint256[]"
        }
      ],
      "stateMutability": "view",
      "type": "function"
    },
    {
      "inputs": [
        {
          "internalType": "address",
          "name": "user",
          "type": "address"
        }
      ],
      "name": "getTicketsIdsByAddress",
      "outputs": [
        {
          "internalType": "uint256[]",
          "name": "",
          "type": "uint256[]"
        }
      ],
      "stateMutability": "view",
      "type": "function"
    },
    {
      "inputs": [
        {
          "internalType": "uint256",
          "name": "productId",
          "type": "uint256"
        }
      ],
      "name": "getTicketsIdsByProduct",
      "outputs": [
        {
          "internalType": "uint256[]",
          "name": "",
          "type": "uint256[]"
        }
      ],
      "stateMutability": "view",
      "type": "function"
    },
    {
      "inputs": [],
      "name": "owner",
      "outputs": [
        {
          "internalType": "address",
          "name": "",
          "type": "address"
        }
      ],
      "stateMutability": "view",
      "type": "function"
    },
    {
      "inputs": [
        {
          "internalType": "uint256",
          "name": "productId",
          "type": "uint256"
        }
      ],
      "name": "payProduct",
      "outputs": [],
      "stateMutability": "payable",
      "type": "function"
    },
    {
      "inputs": [
        {
          "internalType": "uint256",
          "name": "",
          "type": "uint256"
        }
      ],
      "name": "productMapping",
      "outputs": [
        {
          "internalType": "uint256",
          "name": "price",
          "type": "uint256"
        },
        {
          "internalType": "address payable",
          "name": "seller",
          "type": "address"
        },
        {
          "internalType": "address",
          "name": "token",
          "type": "address"
        },
        {
          "internalType": "bool",
          "name": "enabled",
          "type": "bool"
        },
        {
          "internalType": "uint256",
          "name": "stock",
          "type": "uint256"
        }
      ],
      "stateMutability": "view",
      "type": "function"
    },
    {
      "inputs": [
        {
          "internalType": "uint256",
          "name": "",
          "type": "uint256"
        }
      ],
      "name": "productTicketsMapping",
      "outputs": [
        {
          "internalType": "uint256",
          "name": "productId",
          "type": "uint256"
        },
        {
          "internalType": "enum Venta.Status",
          "name": "status",
          "type": "uint8"
        },
        {
          "internalType": "address payable",
          "name": "buyer",
          "type": "address"
        },
        {
          "internalType": "address",
          "name": "tokenPaid",
          "type": "address"
        },
        {
          "internalType": "uint256",
          "name": "pricePaid",
          "type": "uint256"
        }
      ],
      "stateMutability": "view",
      "type": "function"
    },
    {
      "inputs": [
        {
          "internalType": "uint256",
          "name": "ticketId",
          "type": "uint256"
        }
      ],
      "name": "refundProduct",
      "outputs": [],
      "stateMutability": "nonpayable",
      "type": "function"
    },
    {
      "inputs": [
        {
          "internalType": "uint256",
          "name": "ticketId",
          "type": "uint256"
        }
      ],
      "name": "releasePay",
      "outputs": [],
      "stateMutability": "nonpayable",
      "type": "function"
    },
    {
      "inputs": [
        {
          "internalType": "uint256",
          "name": "productId",
          "type": "uint256"
        },
        {
          "internalType": "uint256",
          "name": "stockToRemove",
          "type": "uint256"
        }
      ],
      "name": "removeStock",
      "outputs": [],
      "stateMutability": "nonpayable",
      "type": "function"
    },
    {
      "inputs": [],
      "name": "renounceOwnership",
      "outputs": [],
      "stateMutability": "nonpayable",
      "type": "function"
    },
    {
      "inputs": [
        {
          "internalType": "uint256",
          "name": "productId",
          "type": "uint256"
        },
        {
          "internalType": "address payable",
          "name": "seller",
          "type": "address"
        },
        {
          "internalType": "uint256",
          "name": "price",
          "type": "uint256"
        },
        {
          "internalType": "address",
          "name": "token",
          "type": "address"
        },
        {
          "internalType": "uint256",
          "name": "stock",
          "type": "uint256"
        }
      ],
      "name": "submitProduct",
      "outputs": [],
      "stateMutability": "nonpayable",
      "type": "function"
    },
    {
      "inputs": [
        {
          "internalType": "address",
          "name": "newOwner",
          "type": "address"
        }
      ],
      "name": "transferOwnership",
      "outputs": [],
      "stateMutability": "nonpayable",
      "type": "function"
    }
  ],
  "bytecode": "0x60806040523480156200001157600080fd5b5062000032620000266200003860201b60201c565b6200004060201b60201c565b62000104565b600033905090565b60008060009054906101000a900473ffffffffffffffffffffffffffffffffffffffff169050816000806101000a81548173ffffffffffffffffffffffffffffffffffffffff021916908373ffffffffffffffffffffffffffffffffffffffff1602179055508173ffffffffffffffffffffffffffffffffffffffff168173ffffffffffffffffffffffffffffffffffffffff167f8be0079c531659141344cd1fd0a4f28419497f9722a3daafe3b4186f6b6457e060405160405180910390a35050565b61303f80620001146000396000f3fe6080604052600436106100e85760003560e01c80637ebc0a821161008a578063d85fcb2911610059578063d85fcb29146102bf578063ecd6638a14610300578063f2fde38b14610329578063ff58aa1814610352576100e8565b80637ebc0a82146102175780637edd19a2146102425780638da5cb5b1461026b578063d4ae6c2014610296576100e8565b80634d4b27c5116100c65780634d4b27c51461016f578063557523fb1461019a578063715018a6146101d75780637274d680146101ee576100e8565b80630773b43e146100ed5780632c6ed64b1461012a57806332f5d03714610153575b600080fd5b3480156100f957600080fd5b50610114600480360381019061010f919061233b565b610393565b6040516101219190612426565b60405180910390f35b34801561013657600080fd5b50610151600480360381019061014c919061233b565b610509565b005b61016d6004803603810190610168919061233b565b610a6f565b005b34801561017b57600080fd5b50610184610fd1565b6040516101919190612426565b60405180910390f35b3480156101a657600080fd5b506101c160048036038101906101bc91906124a6565b611029565b6040516101ce9190612426565b60405180910390f35b3480156101e357600080fd5b506101ec611237565b005b3480156101fa57600080fd5b506102156004803603810190610210919061233b565b61124b565b005b34801561022357600080fd5b5061022c6115cc565b6040516102399190612426565b60405180910390f35b34801561024e57600080fd5b50610269600480360381019061026491906124d3565b611624565b005b34801561027757600080fd5b50610280611952565b60405161028d9190612522565b60405180910390f35b3480156102a257600080fd5b506102bd60048036038101906102b891906124d3565b61197b565b005b3480156102cb57600080fd5b506102e660048036038101906102e1919061233b565b611cad565b6040516102f7959493929190612588565b60405180910390f35b34801561030c57600080fd5b5061032760048036038101906103229190612607565b611d30565b005b34801561033557600080fd5b50610350600480360381019061034b91906124a6565b6120b0565b005b34801561035e57600080fd5b506103796004803603810190610374919061233b565b612133565b60405161038a9594939291906126f9565b60405180910390f35b60606000805b600480549050811015610403578360026000600484815481106103bf576103be61274c565b5b9060005260206000200154815260200190815260200160002060000154036103f05781806103ec906127aa565b9250505b80806103fb906127aa565b915050610399565b506000808267ffffffffffffffff811115610421576104206127f2565b5b60405190808252806020026020018201604052801561044f5781602001602082028036833780820191505090505b50905060005b6004805490508110156104fd5785600260006004848154811061047b5761047a61274c565b5b9060005260206000200154815260200190815260200160002060000154036104ea57600481815481106104b1576104b061274c565b5b90600052602060002001548284815181106104cf576104ce61274c565b5b60200260200101818152505082806104e6906127aa565b9350505b80806104f5906127aa565b915050610455565b50809350505050919050565b6105116121b6565b6000600260008381526020019081526020016000206040518060a0016040529081600082015481526020016001820160009054906101000a900460ff1660018111156105605761055f612682565b5b600181111561057257610571612682565b5b81526020016001820160019054906101000a900473ffffffffffffffffffffffffffffffffffffffff1673ffffffffffffffffffffffffffffffffffffffff1673ffffffffffffffffffffffffffffffffffffffff1681526020016002820160009054906101000a900473ffffffffffffffffffffffffffffffffffffffff1673ffffffffffffffffffffffffffffffffffffffff1673ffffffffffffffffffffffffffffffffffffffff16815260200160038201548152505090506000600181111561064257610641612682565b5b8160200151600181111561065957610658612682565b5b14610699576040517f08c379a00000000000000000000000000000000000000000000000000000000081526004016106909061287e565b60405180910390fd5b600073ffffffffffffffffffffffffffffffffffffffff16816040015173ffffffffffffffffffffffffffffffffffffffff160361070c576040517f08c379a0000000000000000000000000000000000000000000000000000000008152600401610703906128ea565b60405180910390fd5b600060016000836000015181526020019081526020016000206040518060a0016040529081600082015481526020016001820160009054906101000a900473ffffffffffffffffffffffffffffffffffffffff1673ffffffffffffffffffffffffffffffffffffffff1673ffffffffffffffffffffffffffffffffffffffff1681526020016002820160009054906101000a900473ffffffffffffffffffffffffffffffffffffffff1673ffffffffffffffffffffffffffffffffffffffff1673ffffffffffffffffffffffffffffffffffffffff1681526020016002820160149054906101000a900460ff161515151581526020016003820154815250509050600073ffffffffffffffffffffffffffffffffffffffff16816020015173ffffffffffffffffffffffffffffffffffffffff1603610880576040517f08c379a000000000000000000000000000000000000000000000000000000000815260040161087790612956565b60405180910390fd5b80606001516108c4576040517f08c379a00000000000000000000000000000000000000000000000000000000081526004016108bb906129c2565b60405180910390fd5b806020015173ffffffffffffffffffffffffffffffffffffffff166108fc83608001519081150290604051600060405180830381858888f19350505050158015610912573d6000803e3d6000fd5b5060018260200190600181111561092c5761092b612682565b5b908160018111156109405761093f612682565b5b8152505081600260008581526020019081526020016000206000820151816000015560208201518160010160006101000a81548160ff0219169083600181111561098d5761098c612682565b5b021790555060408201518160010160016101000a81548173ffffffffffffffffffffffffffffffffffffffff021916908373ffffffffffffffffffffffffffffffffffffffff16021790555060608201518160020160006101000a81548173ffffffffffffffffffffffffffffffffffffffff021916908373ffffffffffffffffffffffffffffffffffffffff160217905550608082015181600301559050507f28bd5cdf74e5af1f33d9449ac32a1abe4d471fbcbb634c7db2f67732bb775af0826000015184604051610a629291906129e2565b60405180910390a1505050565b6000600160008381526020019081526020016000206040518060a0016040529081600082015481526020016001820160009054906101000a900473ffffffffffffffffffffffffffffffffffffffff1673ffffffffffffffffffffffffffffffffffffffff1673ffffffffffffffffffffffffffffffffffffffff1681526020016002820160009054906101000a900473ffffffffffffffffffffffffffffffffffffffff1673ffffffffffffffffffffffffffffffffffffffff1673ffffffffffffffffffffffffffffffffffffffff1681526020016002820160149054906101000a900460ff161515151581526020016003820154815250509050600073ffffffffffffffffffffffffffffffffffffffff16816020015173ffffffffffffffffffffffffffffffffffffffff1603610bdf576040517f08c379a0000000000000000000000000000000000000000000000000000000008152600401610bd690612956565b60405180910390fd5b8060600151610c23576040517f08c379a0000000000000000000000000000000000000000000000000000000008152600401610c1a906129c2565b60405180910390fd5b6000816080015103610c6a576040517f08c379a0000000000000000000000000000000000000000000000000000000008152600401610c6190612a57565b60405180910390fd5b600073ffffffffffffffffffffffffffffffffffffffff16816040015173ffffffffffffffffffffffffffffffffffffffff1603610ce95780600001513414610ce8576040517f08c379a0000000000000000000000000000000000000000000000000000000008152600401610cdf90612ac3565b60405180910390fd5b5b60008233438460800151604051602001610d069493929190612ae3565b6040516020818303038152906040528051906020012060001c90506040518060a0016040528084815260200160006001811115610d4657610d45612682565b5b81526020013373ffffffffffffffffffffffffffffffffffffffff168152602001836040015173ffffffffffffffffffffffffffffffffffffffff1681526020018360000151815250600260008381526020019081526020016000206000820151816000015560208201518160010160006101000a81548160ff02191690836001811115610dd757610dd6612682565b5b021790555060408201518160010160016101000a81548173ffffffffffffffffffffffffffffffffffffffff021916908373ffffffffffffffffffffffffffffffffffffffff16021790555060608201518160020160006101000a81548173ffffffffffffffffffffffffffffffffffffffff021916908373ffffffffffffffffffffffffffffffffffffffff160217905550608082015181600301559050506004819080600181540180825580915050600190039060005260206000200160009091909190915055600182608001818151610eb39190612b28565b9150818152505081600160008581526020019081526020016000206000820151816000015560208201518160010160006101000a81548173ffffffffffffffffffffffffffffffffffffffff021916908373ffffffffffffffffffffffffffffffffffffffff16021790555060408201518160020160006101000a81548173ffffffffffffffffffffffffffffffffffffffff021916908373ffffffffffffffffffffffffffffffffffffffff16021790555060608201518160020160146101000a81548160ff021916908315150217905550608082015181600301559050507ffd5914e728bfefb852bf85fd7c1271e8b8bc244557c8a5c1865563251dbc4e368382604051610fc49291906129e2565b60405180910390a1505050565b6060600480548060200260200160405190810160405280929190818152602001828054801561101f57602002820191906000526020600020905b81548152602001906001019080831161100b575b5050505050905090565b60606000805b6004805490508110156110e5578373ffffffffffffffffffffffffffffffffffffffff16600260006004848154811061106b5761106a61274c565b5b9060005260206000200154815260200190815260200160002060010160019054906101000a900473ffffffffffffffffffffffffffffffffffffffff1673ffffffffffffffffffffffffffffffffffffffff16036110d25781806110ce906127aa565b9250505b80806110dd906127aa565b91505061102f565b506000808267ffffffffffffffff811115611103576111026127f2565b5b6040519080825280602002602001820160405280156111315781602001602082028036833780820191505090505b50905060005b60048054905081101561122b578573ffffffffffffffffffffffffffffffffffffffff1660026000600484815481106111735761117261274c565b5b9060005260206000200154815260200190815260200160002060010160019054906101000a900473ffffffffffffffffffffffffffffffffffffffff1673ffffffffffffffffffffffffffffffffffffffff160361121857600481815481106111df576111de61274c565b5b90600052602060002001548284815181106111fd576111fc61274c565b5b6020026020010181815250508280611214906127aa565b9350505b8080611223906127aa565b915050611137565b50809350505050919050565b61123f6121b6565b6112496000612234565b565b6112536121b6565b6000600260008381526020019081526020016000206040518060a0016040529081600082015481526020016001820160009054906101000a900460ff1660018111156112a2576112a1612682565b5b60018111156112b4576112b3612682565b5b81526020016001820160019054906101000a900473ffffffffffffffffffffffffffffffffffffffff1673ffffffffffffffffffffffffffffffffffffffff1673ffffffffffffffffffffffffffffffffffffffff1681526020016002820160009054906101000a900473ffffffffffffffffffffffffffffffffffffffff1673ffffffffffffffffffffffffffffffffffffffff1673ffffffffffffffffffffffffffffffffffffffff16815260200160038201548152505090506000600181111561138457611383612682565b5b8160200151600181111561139b5761139a612682565b5b146113db576040517f08c379a00000000000000000000000000000000000000000000000000000000081526004016113d29061287e565b60405180910390fd5b6000816000015103611422576040517f08c379a0000000000000000000000000000000000000000000000000000000008152600401611419906128ea565b60405180910390fd5b806040015173ffffffffffffffffffffffffffffffffffffffff166108fc82608001519081150290604051600060405180830381858888f19350505050158015611470573d6000803e3d6000fd5b5060018160200190600181111561148a57611489612682565b5b9081600181111561149e5761149d612682565b5b8152505080600260008481526020019081526020016000206000820151816000015560208201518160010160006101000a81548160ff021916908360018111156114eb576114ea612682565b5b021790555060408201518160010160016101000a81548173ffffffffffffffffffffffffffffffffffffffff021916908373ffffffffffffffffffffffffffffffffffffffff16021790555060608201518160020160006101000a81548173ffffffffffffffffffffffffffffffffffffffff021916908373ffffffffffffffffffffffffffffffffffffffff160217905550608082015181600301559050507f74653214078e6813657574907176c0534ae3aee106bfb617d9c38aaff8c3a55e8160000151836040516115c09291906129e2565b60405180910390a15050565b6060600380548060200260200160405190810160405280929190818152602001828054801561161a57602002820191906000526020600020905b815481526020019060010190808311611606575b5050505050905090565b61162c6121b6565b6000600160008481526020019081526020016000206040518060a0016040529081600082015481526020016001820160009054906101000a900473ffffffffffffffffffffffffffffffffffffffff1673ffffffffffffffffffffffffffffffffffffffff1673ffffffffffffffffffffffffffffffffffffffff1681526020016002820160009054906101000a900473ffffffffffffffffffffffffffffffffffffffff1673ffffffffffffffffffffffffffffffffffffffff1673ffffffffffffffffffffffffffffffffffffffff1681526020016002820160149054906101000a900460ff1615151515815260200160038201548152505090506000830361176c576040517f08c379a000000000000000000000000000000000000000000000000000000000815260040161176390612ba8565b60405180910390fd5b600082036117af576040517f08c379a00000000000000000000000000000000000000000000000000000000081526004016117a690612c14565b60405180910390fd5b600073ffffffffffffffffffffffffffffffffffffffff16816020015173ffffffffffffffffffffffffffffffffffffffff1603611822576040517f08c379a000000000000000000000000000000000000000000000000000000000815260040161181990612956565b60405180910390fd5b81816080018181516118349190612c34565b9150818152505080600160008581526020019081526020016000206000820151816000015560208201518160010160006101000a81548173ffffffffffffffffffffffffffffffffffffffff021916908373ffffffffffffffffffffffffffffffffffffffff16021790555060408201518160020160006101000a81548173ffffffffffffffffffffffffffffffffffffffff021916908373ffffffffffffffffffffffffffffffffffffffff16021790555060608201518160020160146101000a81548160ff021916908315150217905550608082015181600301559050507f67d779fe1f3527b2d1d1fdbc133332692ab5e3ad4a1b1a2e0f244a28f3928b3583836040516119459291906129e2565b60405180910390a1505050565b60008060009054906101000a900473ffffffffffffffffffffffffffffffffffffffff16905090565b6119836121b6565b6000600160008481526020019081526020016000206040518060a0016040529081600082015481526020016001820160009054906101000a900473ffffffffffffffffffffffffffffffffffffffff1673ffffffffffffffffffffffffffffffffffffffff1673ffffffffffffffffffffffffffffffffffffffff1681526020016002820160009054906101000a900473ffffffffffffffffffffffffffffffffffffffff1673ffffffffffffffffffffffffffffffffffffffff1673ffffffffffffffffffffffffffffffffffffffff1681526020016002820160149054906101000a900460ff16151515158152602001600382015481525050905060008303611ac3576040517f08c379a0000000000000000000000000000000000000000000000000000000008152600401611aba90612ba8565b60405180910390fd5b8181608001511015611b0a576040517f08c379a0000000000000000000000000000000000000000000000000000000008152600401611b0190612cb4565b60405180910390fd5b600073ffffffffffffffffffffffffffffffffffffffff16816020015173ffffffffffffffffffffffffffffffffffffffff1603611b7d576040517f08c379a0000000000000000000000000000000000000000000000000000000008152600401611b7490612956565b60405180910390fd5b8181608001818151611b8f9190612b28565b9150818152505080600160008581526020019081526020016000206000820151816000015560208201518160010160006101000a81548173ffffffffffffffffffffffffffffffffffffffff021916908373ffffffffffffffffffffffffffffffffffffffff16021790555060408201518160020160006101000a81548173ffffffffffffffffffffffffffffffffffffffff021916908373ffffffffffffffffffffffffffffffffffffffff16021790555060608201518160020160146101000a81548160ff021916908315150217905550608082015181600301559050507fa1f3549657ee958db17de0deede0d12bc593b09e3f300e37c77d7246077697268383604051611ca09291906129e2565b60405180910390a1505050565b60016020528060005260406000206000915090508060000154908060010160009054906101000a900473ffffffffffffffffffffffffffffffffffffffff16908060020160009054906101000a900473ffffffffffffffffffffffffffffffffffffffff16908060020160149054906101000a900460ff16908060030154905085565b611d386121b6565b60008503611d7b576040517f08c379a0000000000000000000000000000000000000000000000000000000008152600401611d7290612d20565b60405180910390fd5b60008303611dbe576040517f08c379a0000000000000000000000000000000000000000000000000000000008152600401611db590612d8c565b60405180910390fd5b600073ffffffffffffffffffffffffffffffffffffffff168473ffffffffffffffffffffffffffffffffffffffff1603611e2d576040517f08c379a0000000000000000000000000000000000000000000000000000000008152600401611e2490612df8565b60405180910390fd5b60008103611e70576040517f08c379a0000000000000000000000000000000000000000000000000000000008152600401611e6790612e64565b60405180910390fd5b600073ffffffffffffffffffffffffffffffffffffffff166001600087815260200190815260200160002060010160009054906101000a900473ffffffffffffffffffffffffffffffffffffffff1673ffffffffffffffffffffffffffffffffffffffff1614611f15576040517f08c379a0000000000000000000000000000000000000000000000000000000008152600401611f0c90612ed0565b60405180910390fd5b60006040518060a001604052808581526020018673ffffffffffffffffffffffffffffffffffffffff1681526020018473ffffffffffffffffffffffffffffffffffffffff16815260200160011515815260200183815250905080600160008881526020019081526020016000206000820151816000015560208201518160010160006101000a81548173ffffffffffffffffffffffffffffffffffffffff021916908373ffffffffffffffffffffffffffffffffffffffff16021790555060408201518160020160006101000a81548173ffffffffffffffffffffffffffffffffffffffff021916908373ffffffffffffffffffffffffffffffffffffffff16021790555060608201518160020160146101000a81548160ff0219169083151502179055506080820151816003015590505060038690806001815401808255809150506001900390600052602060002001600090919091909150557f32a01c417bd1a439c2965079d6dfff791ed56dcfd56af4cf8863f8d4ab5b148a866040516120a09190612ef0565b60405180910390a1505050505050565b6120b86121b6565b600073ffffffffffffffffffffffffffffffffffffffff168173ffffffffffffffffffffffffffffffffffffffff1603612127576040517f08c379a000000000000000000000000000000000000000000000000000000000815260040161211e90612f7d565b60405180910390fd5b61213081612234565b50565b60026020528060005260406000206000915090508060000154908060010160009054906101000a900460ff16908060010160019054906101000a900473ffffffffffffffffffffffffffffffffffffffff16908060020160009054906101000a900473ffffffffffffffffffffffffffffffffffffffff16908060030154905085565b6121be6122f8565b73ffffffffffffffffffffffffffffffffffffffff166121dc611952565b73ffffffffffffffffffffffffffffffffffffffff1614612232576040517f08c379a000000000000000000000000000000000000000000000000000000000815260040161222990612fe9565b60405180910390fd5b565b60008060009054906101000a900473ffffffffffffffffffffffffffffffffffffffff169050816000806101000a81548173ffffffffffffffffffffffffffffffffffffffff021916908373ffffffffffffffffffffffffffffffffffffffff1602179055508173ffffffffffffffffffffffffffffffffffffffff168173ffffffffffffffffffffffffffffffffffffffff167f8be0079c531659141344cd1fd0a4f28419497f9722a3daafe3b4186f6b6457e060405160405180910390a35050565b600033905090565b600080fd5b6000819050919050565b61231881612305565b811461232357600080fd5b50565b6000813590506123358161230f565b92915050565b60006020828403121561235157612350612300565b5b600061235f84828501612326565b91505092915050565b600081519050919050565b600082825260208201905092915050565b6000819050602082019050919050565b61239d81612305565b82525050565b60006123af8383612394565b60208301905092915050565b6000602082019050919050565b60006123d382612368565b6123dd8185612373565b93506123e883612384565b8060005b8381101561241957815161240088826123a3565b975061240b836123bb565b9250506001810190506123ec565b5085935050505092915050565b6000602082019050818103600083015261244081846123c8565b905092915050565b600073ffffffffffffffffffffffffffffffffffffffff82169050919050565b600061247382612448565b9050919050565b61248381612468565b811461248e57600080fd5b50565b6000813590506124a08161247a565b92915050565b6000602082840312156124bc576124bb612300565b5b60006124ca84828501612491565b91505092915050565b600080604083850312156124ea576124e9612300565b5b60006124f885828601612326565b925050602061250985828601612326565b9150509250929050565b61251c81612468565b82525050565b60006020820190506125376000830184612513565b92915050565b61254681612305565b82525050565b600061255782612448565b9050919050565b6125678161254c565b82525050565b60008115159050919050565b6125828161256d565b82525050565b600060a08201905061259d600083018861253d565b6125aa602083018761255e565b6125b76040830186612513565b6125c46060830185612579565b6125d1608083018461253d565b9695505050505050565b6125e48161254c565b81146125ef57600080fd5b50565b600081359050612601816125db565b92915050565b600080600080600060a0868803121561262357612622612300565b5b600061263188828901612326565b9550506020612642888289016125f2565b945050604061265388828901612326565b935050606061266488828901612491565b925050608061267588828901612326565b9150509295509295909350565b7f4e487b7100000000000000000000000000000000000000000000000000000000600052602160045260246000fd5b600281106126c2576126c1612682565b5b50565b60008190506126d3826126b1565b919050565b60006126e3826126c5565b9050919050565b6126f3816126d8565b82525050565b600060a08201905061270e600083018861253d565b61271b60208301876126ea565b612728604083018661255e565b6127356060830185612513565b612742608083018461253d565b9695505050505050565b7f4e487b7100000000000000000000000000000000000000000000000000000000600052603260045260246000fd5b7f4e487b7100000000000000000000000000000000000000000000000000000000600052601160045260246000fd5b60006127b582612305565b91507fffffffffffffffffffffffffffffffffffffffffffffffffffffffffffffffff82036127e7576127e661277b565b5b600182019050919050565b7f4e487b7100000000000000000000000000000000000000000000000000000000600052604160045260246000fd5b600082825260208201905092915050565b7f456c207469636b6574207961206675652070616761646f000000000000000000600082015250565b6000612868601783612821565b915061287382612832565b602082019050919050565b600060208201905081810360008301526128978161285b565b9050919050565b7f456c207469636b6574206e6f2065786973746500000000000000000000000000600082015250565b60006128d4601383612821565b91506128df8261289e565b602082019050919050565b60006020820190508181036000830152612903816128c7565b9050919050565b7f50726f647563746f206e6f206578697374650000000000000000000000000000600082015250565b6000612940601283612821565b915061294b8261290a565b602082019050919050565b6000602082019050818103600083015261296f81612933565b9050919050565b7f456c2070726f647563746f206573746120646573686162696c697461646f0000600082015250565b60006129ac601e83612821565b91506129b782612976565b602082019050919050565b600060208201905081810360008301526129db8161299f565b9050919050565b60006040820190506129f7600083018561253d565b612a04602083018461253d565b9392505050565b7f4e6f206861792073746f636b2064656c2070726f647563746f00000000000000600082015250565b6000612a41601983612821565b9150612a4c82612a0b565b602082019050919050565b60006020820190508181036000830152612a7081612a34565b9050919050565b7f216d73672e76616c756500000000000000000000000000000000000000000000600082015250565b6000612aad600a83612821565b9150612ab882612a77565b602082019050919050565b60006020820190508181036000830152612adc81612aa0565b9050919050565b6000608082019050612af8600083018761253d565b612b056020830186612513565b612b12604083018561253d565b612b1f606083018461253d565b95945050505050565b6000612b3382612305565b9150612b3e83612305565b9250828203905081811115612b5657612b5561277b565b5b92915050565b7f496e677265736520756e2069642076616c69646f000000000000000000000000600082015250565b6000612b92601483612821565b9150612b9d82612b5c565b602082019050919050565b60006020820190508181036000830152612bc181612b85565b9050919050565b7f496e677265736520756e206e756d65726f206d61796f72206120300000000000600082015250565b6000612bfe601b83612821565b9150612c0982612bc8565b602082019050919050565b60006020820190508181036000830152612c2d81612bf1565b9050919050565b6000612c3f82612305565b9150612c4a83612305565b9250828201905080821115612c6257612c6161277b565b5b92915050565b7f4e6f206861792073746f636b20737566696369656e7465000000000000000000600082015250565b6000612c9e601783612821565b9150612ca982612c68565b602082019050919050565b60006020820190508181036000830152612ccd81612c91565b9050919050565b7f496e677265736520756e206964206d61796f7220612030000000000000000000600082015250565b6000612d0a601783612821565b9150612d1582612cd4565b602082019050919050565b60006020820190508181036000830152612d3981612cfd565b9050919050565b7f496e677265736520756e2070726563696f206d61796f72206120300000000000600082015250565b6000612d76601b83612821565b9150612d8182612d40565b602082019050919050565b60006020820190508181036000830152612da581612d69565b9050919050565b7f496e677265736520756e6120646972656363696f6e2076616c69646100000000600082015250565b6000612de2601c83612821565b9150612ded82612dac565b602082019050919050565b60006020820190508181036000830152612e1181612dd5565b9050919050565b7f496e677265736520756e2073746f636b206d61796f7220612030000000000000600082015250565b6000612e4e601a83612821565b9150612e5982612e18565b602082019050919050565b60006020820190508181036000830152612e7d81612e41565b9050919050565b7f50726f647563746f207961206578697374650000000000000000000000000000600082015250565b6000612eba601283612821565b9150612ec582612e84565b602082019050919050565b60006020820190508181036000830152612ee981612ead565b9050919050565b6000602082019050612f05600083018461253d565b92915050565b7f4f776e61626c653a206e6577206f776e657220697320746865207a65726f206160008201527f6464726573730000000000000000000000000000000000000000000000000000602082015250565b6000612f67602683612821565b9150612f7282612f0b565b604082019050919050565b60006020820190508181036000830152612f9681612f5a565b9050919050565b7f4f776e61626c653a2063616c6c6572206973206e6f7420746865206f776e6572600082015250565b6000612fd3602083612821565b9150612fde82612f9d565b602082019050919050565b6000602082019050818103600083015261300281612fc6565b905091905056fea26469706673582212200c90a418a36d06a2f5bbcb90fb78558e2c97b5d3d85c56dcecdf3dbae15265e364736f6c63430008110033",
  "linkReferences": {},
  "deployedLinkReferences": {}
}