{
  "_format": "hh-sol-artifact-1",
  "contractName": "Venta",
  "sourceName": "contracts/Venta.sol",
  "abi": [
    {
      "anonymous": false,
      "inputs": [
        {
          "indexed": true,
          "internalType": "address",
          "name": "previousOwner",
          "type": "address"
        },
        {
          "indexed": true,
          "internalType": "address",
          "name": "newOwner",
          "type": "address"
        }
      ],
      "name": "OwnershipTransferred",
      "type": "event"
    },
    {
      "anonymous": false,
      "inputs": [
        {
          "indexed": false,
          "internalType": "uint256",
          "name": "productId",
          "type": "uint256"
        },
        {
          "indexed": false,
          "internalType": "uint256",
          "name": "tickerId",
          "type": "uint256"
        }
      ],
      "name": "PayReleased",
      "type": "event"
    },
    {
      "anonymous": false,
      "inputs": [
        {
          "indexed": false,
          "internalType": "uint256",
          "name": "productId",
          "type": "uint256"
        },
        {
          "indexed": false,
          "internalType": "uint256",
          "name": "ticketId",
          "type": "uint256"
        }
      ],
      "name": "ProductPaid",
      "type": "event"
    },
    {
      "anonymous": false,
      "inputs": [
        {
          "indexed": false,
          "internalType": "uint256",
          "name": "productId",
          "type": "uint256"
        },
        {
          "indexed": false,
          "internalType": "uint256",
          "name": "ticketId",
          "type": "uint256"
        }
      ],
      "name": "ProductRefunded",
      "type": "event"
    },
    {
      "anonymous": false,
      "inputs": [
        {
          "indexed": false,
          "internalType": "uint256",
          "name": "productId",
          "type": "uint256"
        }
      ],
      "name": "ProductSubmitted",
      "type": "event"
    },
    {
      "anonymous": false,
      "inputs": [
        {
          "indexed": false,
          "internalType": "uint256",
          "name": "productId",
          "type": "uint256"
        },
        {
          "indexed": false,
          "internalType": "uint256",
          "name": "stockAdded",
          "type": "uint256"
        }
      ],
      "name": "StockAdded",
      "type": "event"
    },
    {
      "anonymous": false,
      "inputs": [
        {
          "indexed": false,
          "internalType": "uint256",
          "name": "productId",
          "type": "uint256"
        },
        {
          "indexed": false,
          "internalType": "uint256",
          "name": "stockRemoved",
          "type": "uint256"
        }
      ],
      "name": "StockRemoved",
      "type": "event"
    },
    {
      "inputs": [
        {
          "internalType": "uint256",
          "name": "productId",
          "type": "uint256"
        },
        {
          "internalType": "uint256",
          "name": "stockToAdd",
          "type": "uint256"
        }
      ],
      "name": "addStock",
      "outputs": [],
      "stateMutability": "nonpayable",
      "type": "function"
    },
    {
      "inputs": [],
      "name": "getProductsIds",
      "outputs": [
        {
          "internalType": "uint256[]",
          "name": "",
          "type": "uint256[]"
        }
      ],
      "stateMutability": "view",
      "type": "function"
    },
    {
      "inputs": [],
      "name": "getTicketsIds",
      "outputs": [
        {
          "internalType": "uint256[]",
          "name": "",
          "type": "uint256[]"
        }
      ],
      "stateMutability": "view",
      "type": "function"
    },
    {
      "inputs": [
        {
          "internalType": "address",
          "name": "user",
          "type": "address"
        }
      ],
      "name": "getTicketsIdsByAddress",
      "outputs": [
        {
          "internalType": "uint256[]",
          "name": "",
          "type": "uint256[]"
        }
      ],
      "stateMutability": "view",
      "type": "function"
    },
    {
      "inputs": [
        {
          "internalType": "uint256",
          "name": "productId",
          "type": "uint256"
        }
      ],
      "name": "getTicketsIdsByProduct",
      "outputs": [
        {
          "internalType": "uint256[]",
          "name": "",
          "type": "uint256[]"
        }
      ],
      "stateMutability": "view",
      "type": "function"
    },
    {
      "inputs": [],
      "name": "owner",
      "outputs": [
        {
          "internalType": "address",
          "name": "",
          "type": "address"
        }
      ],
      "stateMutability": "view",
      "type": "function"
    },
    {
      "inputs": [
        {
          "internalType": "uint256",
          "name": "productId",
          "type": "uint256"
        }
      ],
      "name": "payProduct",
      "outputs": [],
      "stateMutability": "payable",
      "type": "function"
    },
    {
      "inputs": [
        {
          "internalType": "uint256",
          "name": "",
          "type": "uint256"
        }
      ],
      "name": "productMapping",
      "outputs": [
        {
          "internalType": "uint256",
          "name": "price",
          "type": "uint256"
        },
        {
          "internalType": "address payable",
          "name": "seller",
          "type": "address"
        },
        {
          "internalType": "address",
          "name": "token",
          "type": "address"
        },
        {
          "internalType": "bool",
          "name": "enabled",
          "type": "bool"
        },
        {
          "internalType": "uint256",
          "name": "stock",
          "type": "uint256"
        }
      ],
      "stateMutability": "view",
      "type": "function"
    },
    {
      "inputs": [
        {
          "internalType": "uint256",
          "name": "",
          "type": "uint256"
        }
      ],
      "name": "productTicketsMapping",
      "outputs": [
        {
          "internalType": "uint256",
          "name": "productId",
          "type": "uint256"
        },
        {
          "internalType": "enum Venta.Status",
          "name": "status",
          "type": "uint8"
        },
        {
          "internalType": "address payable",
          "name": "buyer",
          "type": "address"
        },
        {
          "internalType": "address",
          "name": "tokenPaid",
          "type": "address"
        },
        {
          "internalType": "uint256",
          "name": "pricePaid",
          "type": "uint256"
        }
      ],
      "stateMutability": "view",
      "type": "function"
    },
    {
      "inputs": [
        {
          "internalType": "uint256",
          "name": "ticketId",
          "type": "uint256"
        }
      ],
      "name": "refundProduct",
      "outputs": [],
      "stateMutability": "nonpayable",
      "type": "function"
    },
    {
      "inputs": [
        {
          "internalType": "uint256",
          "name": "ticketId",
          "type": "uint256"
        }
      ],
      "name": "releasePay",
      "outputs": [],
      "stateMutability": "nonpayable",
      "type": "function"
    },
    {
      "inputs": [
        {
          "internalType": "uint256",
          "name": "productId",
          "type": "uint256"
        },
        {
          "internalType": "uint256",
          "name": "stockToRemove",
          "type": "uint256"
        }
      ],
      "name": "removeStock",
      "outputs": [],
      "stateMutability": "nonpayable",
      "type": "function"
    },
    {
      "inputs": [],
      "name": "renounceOwnership",
      "outputs": [],
      "stateMutability": "nonpayable",
      "type": "function"
    },
    {
      "inputs": [
        {
          "internalType": "uint256",
          "name": "productId",
          "type": "uint256"
        },
        {
          "internalType": "address payable",
          "name": "seller",
          "type": "address"
        },
        {
          "internalType": "uint256",
          "name": "price",
          "type": "uint256"
        },
        {
          "internalType": "address",
          "name": "token",
          "type": "address"
        },
        {
          "internalType": "uint256",
          "name": "stock",
          "type": "uint256"
        }
      ],
      "name": "submitProduct",
      "outputs": [],
      "stateMutability": "nonpayable",
      "type": "function"
    },
    {
      "inputs": [
        {
          "internalType": "address",
          "name": "newOwner",
          "type": "address"
        }
      ],
      "name": "transferOwnership",
      "outputs": [],
      "stateMutability": "nonpayable",
      "type": "function"
    }
  ],
  "bytecode": "0x60806040523480156200001157600080fd5b5062000032620000266200003860201b60201c565b6200004060201b60201c565b62000104565b600033905090565b60008060009054906101000a900473ffffffffffffffffffffffffffffffffffffffff169050816000806101000a81548173ffffffffffffffffffffffffffffffffffffffff021916908373ffffffffffffffffffffffffffffffffffffffff1602179055508173ffffffffffffffffffffffffffffffffffffffff168173ffffffffffffffffffffffffffffffffffffffff167f8be0079c531659141344cd1fd0a4f28419497f9722a3daafe3b4186f6b6457e060405160405180910390a35050565b61322080620001146000396000f3fe6080604052600436106100e85760003560e01c80637ebc0a821161008a578063d85fcb2911610059578063d85fcb29146102bf578063ecd6638a14610300578063f2fde38b14610329578063ff58aa1814610352576100e8565b80637ebc0a82146102175780637edd19a2146102425780638da5cb5b1461026b578063d4ae6c2014610296576100e8565b80634d4b27c5116100c65780634d4b27c51461016f578063557523fb1461019a578063715018a6146101d75780637274d680146101ee576100e8565b80630773b43e146100ed5780632c6ed64b1461012a57806332f5d03714610153575b600080fd5b3480156100f957600080fd5b50610114600480360381019061010f91906123e8565b610393565b60405161012191906124d3565b60405180910390f35b34801561013657600080fd5b50610151600480360381019061014c91906123e8565b610509565b005b61016d600480360381019061016891906123e8565b610aca565b005b34801561017b57600080fd5b5061018461107e565b60405161019191906124d3565b60405180910390f35b3480156101a657600080fd5b506101c160048036038101906101bc9190612553565b6110d6565b6040516101ce91906124d3565b60405180910390f35b3480156101e357600080fd5b506101ec6112e4565b005b3480156101fa57600080fd5b50610215600480360381019061021091906123e8565b6112f8565b005b34801561022357600080fd5b5061022c611679565b60405161023991906124d3565b60405180910390f35b34801561024e57600080fd5b5061026960048036038101906102649190612580565b6116d1565b005b34801561027757600080fd5b506102806119ff565b60405161028d91906125cf565b60405180910390f35b3480156102a257600080fd5b506102bd60048036038101906102b89190612580565b611a28565b005b3480156102cb57600080fd5b506102e660048036038101906102e191906123e8565b611d5a565b6040516102f7959493929190612635565b60405180910390f35b34801561030c57600080fd5b50610327600480360381019061032291906126b4565b611ddd565b005b34801561033557600080fd5b50610350600480360381019061034b9190612553565b61215d565b005b34801561035e57600080fd5b50610379600480360381019061037491906123e8565b6121e0565b60405161038a9594939291906127a6565b60405180910390f35b60606000805b600480549050811015610403578360026000600484815481106103bf576103be6127f9565b5b9060005260206000200154815260200190815260200160002060000154036103f05781806103ec90612857565b9250505b80806103fb90612857565b915050610399565b506000808267ffffffffffffffff8111156104215761042061289f565b5b60405190808252806020026020018201604052801561044f5781602001602082028036833780820191505090505b50905060005b6004805490508110156104fd5785600260006004848154811061047b5761047a6127f9565b5b9060005260206000200154815260200190815260200160002060000154036104ea57600481815481106104b1576104b06127f9565b5b90600052602060002001548284815181106104cf576104ce6127f9565b5b60200260200101818152505082806104e690612857565b9350505b80806104f590612857565b915050610455565b50809350505050919050565b610511612263565b6000600260008381526020019081526020016000206040518060a0016040529081600082015481526020016001820160009054906101000a900460ff1660018111156105605761055f61272f565b5b60018111156105725761057161272f565b5b81526020016001820160019054906101000a900473ffffffffffffffffffffffffffffffffffffffff1673ffffffffffffffffffffffffffffffffffffffff1673ffffffffffffffffffffffffffffffffffffffff1681526020016002820160009054906101000a900473ffffffffffffffffffffffffffffffffffffffff1673ffffffffffffffffffffffffffffffffffffffff1673ffffffffffffffffffffffffffffffffffffffff1681526020016003820154815250509050600060018111156106425761064161272f565b5b816020015160018111156106595761065861272f565b5b14610699576040517f08c379a00000000000000000000000000000000000000000000000000000000081526004016106909061292b565b60405180910390fd5b600073ffffffffffffffffffffffffffffffffffffffff16816040015173ffffffffffffffffffffffffffffffffffffffff160361070c576040517f08c379a000000000000000000000000000000000000000000000000000000000815260040161070390612997565b60405180910390fd5b600060016000836000015181526020019081526020016000206040518060a0016040529081600082015481526020016001820160009054906101000a900473ffffffffffffffffffffffffffffffffffffffff1673ffffffffffffffffffffffffffffffffffffffff1673ffffffffffffffffffffffffffffffffffffffff1681526020016002820160009054906101000a900473ffffffffffffffffffffffffffffffffffffffff1673ffffffffffffffffffffffffffffffffffffffff1673ffffffffffffffffffffffffffffffffffffffff1681526020016002820160149054906101000a900460ff161515151581526020016003820154815250509050600073ffffffffffffffffffffffffffffffffffffffff16816020015173ffffffffffffffffffffffffffffffffffffffff1603610880576040517f08c379a000000000000000000000000000000000000000000000000000000000815260040161087790612a03565b60405180910390fd5b80606001516108c4576040517f08c379a00000000000000000000000000000000000000000000000000000000081526004016108bb90612a6f565b60405180910390fd5b816040015173ffffffffffffffffffffffffffffffffffffffff166108fc600284608001516108f39190612abe565b9081150290604051600060405180830381858888f1935050505015801561091e573d6000803e3d6000fd5b50806020015173ffffffffffffffffffffffffffffffffffffffff166108fc83608001519081150290604051600060405180830381858888f1935050505015801561096d573d6000803e3d6000fd5b506001826020019060018111156109875761098661272f565b5b9081600181111561099b5761099a61272f565b5b8152505081600260008581526020019081526020016000206000820151816000015560208201518160010160006101000a81548160ff021916908360018111156109e8576109e761272f565b5b021790555060408201518160010160016101000a81548173ffffffffffffffffffffffffffffffffffffffff021916908373ffffffffffffffffffffffffffffffffffffffff16021790555060608201518160020160006101000a81548173ffffffffffffffffffffffffffffffffffffffff021916908373ffffffffffffffffffffffffffffffffffffffff160217905550608082015181600301559050507f28bd5cdf74e5af1f33d9449ac32a1abe4d471fbcbb634c7db2f67732bb775af0826000015184604051610abd929190612aef565b60405180910390a1505050565b6000600160008381526020019081526020016000206040518060a0016040529081600082015481526020016001820160009054906101000a900473ffffffffffffffffffffffffffffffffffffffff1673ffffffffffffffffffffffffffffffffffffffff1673ffffffffffffffffffffffffffffffffffffffff1681526020016002820160009054906101000a900473ffffffffffffffffffffffffffffffffffffffff1673ffffffffffffffffffffffffffffffffffffffff1673ffffffffffffffffffffffffffffffffffffffff1681526020016002820160149054906101000a900460ff161515151581526020016003820154815250509050600073ffffffffffffffffffffffffffffffffffffffff16816020015173ffffffffffffffffffffffffffffffffffffffff1603610c3a576040517f08c379a0000000000000000000000000000000000000000000000000000000008152600401610c3190612a03565b60405180910390fd5b8060600151610c7e576040517f08c379a0000000000000000000000000000000000000000000000000000000008152600401610c7590612a6f565b60405180910390fd5b6000816080015103610cc5576040517f08c379a0000000000000000000000000000000000000000000000000000000008152600401610cbc90612b64565b60405180910390fd5b60028160000151610cd69190612b84565b3414610d17576040517f08c379a0000000000000000000000000000000000000000000000000000000008152600401610d0e90612c38565b60405180910390fd5b600073ffffffffffffffffffffffffffffffffffffffff16816040015173ffffffffffffffffffffffffffffffffffffffff1603610d965780600001513414610d95576040517f08c379a0000000000000000000000000000000000000000000000000000000008152600401610d8c90612ca4565b60405180910390fd5b5b60008233438460800151604051602001610db39493929190612cc4565b6040516020818303038152906040528051906020012060001c90506040518060a0016040528084815260200160006001811115610df357610df261272f565b5b81526020013373ffffffffffffffffffffffffffffffffffffffff168152602001836040015173ffffffffffffffffffffffffffffffffffffffff1681526020018360000151815250600260008381526020019081526020016000206000820151816000015560208201518160010160006101000a81548160ff02191690836001811115610e8457610e8361272f565b5b021790555060408201518160010160016101000a81548173ffffffffffffffffffffffffffffffffffffffff021916908373ffffffffffffffffffffffffffffffffffffffff16021790555060608201518160020160006101000a81548173ffffffffffffffffffffffffffffffffffffffff021916908373ffffffffffffffffffffffffffffffffffffffff160217905550608082015181600301559050506004819080600181540180825580915050600190039060005260206000200160009091909190915055600182608001818151610f609190612d09565b9150818152505081600160008581526020019081526020016000206000820151816000015560208201518160010160006101000a81548173ffffffffffffffffffffffffffffffffffffffff021916908373ffffffffffffffffffffffffffffffffffffffff16021790555060408201518160020160006101000a81548173ffffffffffffffffffffffffffffffffffffffff021916908373ffffffffffffffffffffffffffffffffffffffff16021790555060608201518160020160146101000a81548160ff021916908315150217905550608082015181600301559050507ffd5914e728bfefb852bf85fd7c1271e8b8bc244557c8a5c1865563251dbc4e368382604051611071929190612aef565b60405180910390a1505050565b606060048054806020026020016040519081016040528092919081815260200182805480156110cc57602002820191906000526020600020905b8154815260200190600101908083116110b8575b5050505050905090565b60606000805b600480549050811015611192578373ffffffffffffffffffffffffffffffffffffffff166002600060048481548110611118576111176127f9565b5b9060005260206000200154815260200190815260200160002060010160019054906101000a900473ffffffffffffffffffffffffffffffffffffffff1673ffffffffffffffffffffffffffffffffffffffff160361117f57818061117b90612857565b9250505b808061118a90612857565b9150506110dc565b506000808267ffffffffffffffff8111156111b0576111af61289f565b5b6040519080825280602002602001820160405280156111de5781602001602082028036833780820191505090505b50905060005b6004805490508110156112d8578573ffffffffffffffffffffffffffffffffffffffff1660026000600484815481106112205761121f6127f9565b5b9060005260206000200154815260200190815260200160002060010160019054906101000a900473ffffffffffffffffffffffffffffffffffffffff1673ffffffffffffffffffffffffffffffffffffffff16036112c5576004818154811061128c5761128b6127f9565b5b90600052602060002001548284815181106112aa576112a96127f9565b5b60200260200101818152505082806112c190612857565b9350505b80806112d090612857565b9150506111e4565b50809350505050919050565b6112ec612263565b6112f660006122e1565b565b611300612263565b6000600260008381526020019081526020016000206040518060a0016040529081600082015481526020016001820160009054906101000a900460ff16600181111561134f5761134e61272f565b5b60018111156113615761136061272f565b5b81526020016001820160019054906101000a900473ffffffffffffffffffffffffffffffffffffffff1673ffffffffffffffffffffffffffffffffffffffff1673ffffffffffffffffffffffffffffffffffffffff1681526020016002820160009054906101000a900473ffffffffffffffffffffffffffffffffffffffff1673ffffffffffffffffffffffffffffffffffffffff1673ffffffffffffffffffffffffffffffffffffffff1681526020016003820154815250509050600060018111156114315761143061272f565b5b816020015160018111156114485761144761272f565b5b14611488576040517f08c379a000000000000000000000000000000000000000000000000000000000815260040161147f9061292b565b60405180910390fd5b60008160000151036114cf576040517f08c379a00000000000000000000000000000000000000000000000000000000081526004016114c690612997565b60405180910390fd5b806040015173ffffffffffffffffffffffffffffffffffffffff166108fc82608001519081150290604051600060405180830381858888f1935050505015801561151d573d6000803e3d6000fd5b506001816020019060018111156115375761153661272f565b5b9081600181111561154b5761154a61272f565b5b8152505080600260008481526020019081526020016000206000820151816000015560208201518160010160006101000a81548160ff021916908360018111156115985761159761272f565b5b021790555060408201518160010160016101000a81548173ffffffffffffffffffffffffffffffffffffffff021916908373ffffffffffffffffffffffffffffffffffffffff16021790555060608201518160020160006101000a81548173ffffffffffffffffffffffffffffffffffffffff021916908373ffffffffffffffffffffffffffffffffffffffff160217905550608082015181600301559050507f74653214078e6813657574907176c0534ae3aee106bfb617d9c38aaff8c3a55e81600001518360405161166d929190612aef565b60405180910390a15050565b606060038054806020026020016040519081016040528092919081815260200182805480156116c757602002820191906000526020600020905b8154815260200190600101908083116116b3575b5050505050905090565b6116d9612263565b6000600160008481526020019081526020016000206040518060a0016040529081600082015481526020016001820160009054906101000a900473ffffffffffffffffffffffffffffffffffffffff1673ffffffffffffffffffffffffffffffffffffffff1673ffffffffffffffffffffffffffffffffffffffff1681526020016002820160009054906101000a900473ffffffffffffffffffffffffffffffffffffffff1673ffffffffffffffffffffffffffffffffffffffff1673ffffffffffffffffffffffffffffffffffffffff1681526020016002820160149054906101000a900460ff16151515158152602001600382015481525050905060008303611819576040517f08c379a000000000000000000000000000000000000000000000000000000000815260040161181090612d89565b60405180910390fd5b6000820361185c576040517f08c379a000000000000000000000000000000000000000000000000000000000815260040161185390612df5565b60405180910390fd5b600073ffffffffffffffffffffffffffffffffffffffff16816020015173ffffffffffffffffffffffffffffffffffffffff16036118cf576040517f08c379a00000000000000000000000000000000000000000000000000000000081526004016118c690612a03565b60405180910390fd5b81816080018181516118e19190612e15565b9150818152505080600160008581526020019081526020016000206000820151816000015560208201518160010160006101000a81548173ffffffffffffffffffffffffffffffffffffffff021916908373ffffffffffffffffffffffffffffffffffffffff16021790555060408201518160020160006101000a81548173ffffffffffffffffffffffffffffffffffffffff021916908373ffffffffffffffffffffffffffffffffffffffff16021790555060608201518160020160146101000a81548160ff021916908315150217905550608082015181600301559050507f67d779fe1f3527b2d1d1fdbc133332692ab5e3ad4a1b1a2e0f244a28f3928b3583836040516119f2929190612aef565b60405180910390a1505050565b60008060009054906101000a900473ffffffffffffffffffffffffffffffffffffffff16905090565b611a30612263565b6000600160008481526020019081526020016000206040518060a0016040529081600082015481526020016001820160009054906101000a900473ffffffffffffffffffffffffffffffffffffffff1673ffffffffffffffffffffffffffffffffffffffff1673ffffffffffffffffffffffffffffffffffffffff1681526020016002820160009054906101000a900473ffffffffffffffffffffffffffffffffffffffff1673ffffffffffffffffffffffffffffffffffffffff1673ffffffffffffffffffffffffffffffffffffffff1681526020016002820160149054906101000a900460ff16151515158152602001600382015481525050905060008303611b70576040517f08c379a0000000000000000000000000000000000000000000000000000000008152600401611b6790612d89565b60405180910390fd5b8181608001511015611bb7576040517f08c379a0000000000000000000000000000000000000000000000000000000008152600401611bae90612e95565b60405180910390fd5b600073ffffffffffffffffffffffffffffffffffffffff16816020015173ffffffffffffffffffffffffffffffffffffffff1603611c2a576040517f08c379a0000000000000000000000000000000000000000000000000000000008152600401611c2190612a03565b60405180910390fd5b8181608001818151611c3c9190612d09565b9150818152505080600160008581526020019081526020016000206000820151816000015560208201518160010160006101000a81548173ffffffffffffffffffffffffffffffffffffffff021916908373ffffffffffffffffffffffffffffffffffffffff16021790555060408201518160020160006101000a81548173ffffffffffffffffffffffffffffffffffffffff021916908373ffffffffffffffffffffffffffffffffffffffff16021790555060608201518160020160146101000a81548160ff021916908315150217905550608082015181600301559050507fa1f3549657ee958db17de0deede0d12bc593b09e3f300e37c77d7246077697268383604051611d4d929190612aef565b60405180910390a1505050565b60016020528060005260406000206000915090508060000154908060010160009054906101000a900473ffffffffffffffffffffffffffffffffffffffff16908060020160009054906101000a900473ffffffffffffffffffffffffffffffffffffffff16908060020160149054906101000a900460ff16908060030154905085565b611de5612263565b60008503611e28576040517f08c379a0000000000000000000000000000000000000000000000000000000008152600401611e1f90612f01565b60405180910390fd5b60008303611e6b576040517f08c379a0000000000000000000000000000000000000000000000000000000008152600401611e6290612f6d565b60405180910390fd5b600073ffffffffffffffffffffffffffffffffffffffff168473ffffffffffffffffffffffffffffffffffffffff1603611eda576040517f08c379a0000000000000000000000000000000000000000000000000000000008152600401611ed190612fd9565b60405180910390fd5b60008103611f1d576040517f08c379a0000000000000000000000000000000000000000000000000000000008152600401611f1490613045565b60405180910390fd5b600073ffffffffffffffffffffffffffffffffffffffff166001600087815260200190815260200160002060010160009054906101000a900473ffffffffffffffffffffffffffffffffffffffff1673ffffffffffffffffffffffffffffffffffffffff1614611fc2576040517f08c379a0000000000000000000000000000000000000000000000000000000008152600401611fb9906130b1565b60405180910390fd5b60006040518060a001604052808581526020018673ffffffffffffffffffffffffffffffffffffffff1681526020018473ffffffffffffffffffffffffffffffffffffffff16815260200160011515815260200183815250905080600160008881526020019081526020016000206000820151816000015560208201518160010160006101000a81548173ffffffffffffffffffffffffffffffffffffffff021916908373ffffffffffffffffffffffffffffffffffffffff16021790555060408201518160020160006101000a81548173ffffffffffffffffffffffffffffffffffffffff021916908373ffffffffffffffffffffffffffffffffffffffff16021790555060608201518160020160146101000a81548160ff0219169083151502179055506080820151816003015590505060038690806001815401808255809150506001900390600052602060002001600090919091909150557f32a01c417bd1a439c2965079d6dfff791ed56dcfd56af4cf8863f8d4ab5b148a8660405161214d91906130d1565b60405180910390a1505050505050565b612165612263565b600073ffffffffffffffffffffffffffffffffffffffff168173ffffffffffffffffffffffffffffffffffffffff16036121d4576040517f08c379a00000000000000000000000000000000000000000000000000000000081526004016121cb9061315e565b60405180910390fd5b6121dd816122e1565b50565b60026020528060005260406000206000915090508060000154908060010160009054906101000a900460ff16908060010160019054906101000a900473ffffffffffffffffffffffffffffffffffffffff16908060020160009054906101000a900473ffffffffffffffffffffffffffffffffffffffff16908060030154905085565b61226b6123a5565b73ffffffffffffffffffffffffffffffffffffffff166122896119ff565b73ffffffffffffffffffffffffffffffffffffffff16146122df576040517f08c379a00000000000000000000000000000000000000000000000000000000081526004016122d6906131ca565b60405180910390fd5b565b60008060009054906101000a900473ffffffffffffffffffffffffffffffffffffffff169050816000806101000a81548173ffffffffffffffffffffffffffffffffffffffff021916908373ffffffffffffffffffffffffffffffffffffffff1602179055508173ffffffffffffffffffffffffffffffffffffffff168173ffffffffffffffffffffffffffffffffffffffff167f8be0079c531659141344cd1fd0a4f28419497f9722a3daafe3b4186f6b6457e060405160405180910390a35050565b600033905090565b600080fd5b6000819050919050565b6123c5816123b2565b81146123d057600080fd5b50565b6000813590506123e2816123bc565b92915050565b6000602082840312156123fe576123fd6123ad565b5b600061240c848285016123d3565b91505092915050565b600081519050919050565b600082825260208201905092915050565b6000819050602082019050919050565b61244a816123b2565b82525050565b600061245c8383612441565b60208301905092915050565b6000602082019050919050565b600061248082612415565b61248a8185612420565b935061249583612431565b8060005b838110156124c65781516124ad8882612450565b97506124b883612468565b925050600181019050612499565b5085935050505092915050565b600060208201905081810360008301526124ed8184612475565b905092915050565b600073ffffffffffffffffffffffffffffffffffffffff82169050919050565b6000612520826124f5565b9050919050565b61253081612515565b811461253b57600080fd5b50565b60008135905061254d81612527565b92915050565b600060208284031215612569576125686123ad565b5b60006125778482850161253e565b91505092915050565b60008060408385031215612597576125966123ad565b5b60006125a5858286016123d3565b92505060206125b6858286016123d3565b9150509250929050565b6125c981612515565b82525050565b60006020820190506125e460008301846125c0565b92915050565b6125f3816123b2565b82525050565b6000612604826124f5565b9050919050565b612614816125f9565b82525050565b60008115159050919050565b61262f8161261a565b82525050565b600060a08201905061264a60008301886125ea565b612657602083018761260b565b61266460408301866125c0565b6126716060830185612626565b61267e60808301846125ea565b9695505050505050565b612691816125f9565b811461269c57600080fd5b50565b6000813590506126ae81612688565b92915050565b600080600080600060a086880312156126d0576126cf6123ad565b5b60006126de888289016123d3565b95505060206126ef8882890161269f565b9450506040612700888289016123d3565b93505060606127118882890161253e565b9250506080612722888289016123d3565b9150509295509295909350565b7f4e487b7100000000000000000000000000000000000000000000000000000000600052602160045260246000fd5b6002811061276f5761276e61272f565b5b50565b60008190506127808261275e565b919050565b600061279082612772565b9050919050565b6127a081612785565b82525050565b600060a0820190506127bb60008301886125ea565b6127c86020830187612797565b6127d5604083018661260b565b6127e260608301856125c0565b6127ef60808301846125ea565b9695505050505050565b7f4e487b7100000000000000000000000000000000000000000000000000000000600052603260045260246000fd5b7f4e487b7100000000000000000000000000000000000000000000000000000000600052601160045260246000fd5b6000612862826123b2565b91507fffffffffffffffffffffffffffffffffffffffffffffffffffffffffffffffff820361289457612893612828565b5b600182019050919050565b7f4e487b7100000000000000000000000000000000000000000000000000000000600052604160045260246000fd5b600082825260208201905092915050565b7f456c207469636b6574207961206675652070616761646f000000000000000000600082015250565b60006129156017836128ce565b9150612920826128df565b602082019050919050565b6000602082019050818103600083015261294481612908565b9050919050565b7f456c207469636b6574206e6f2065786973746500000000000000000000000000600082015250565b60006129816013836128ce565b915061298c8261294b565b602082019050919050565b600060208201905081810360008301526129b081612974565b9050919050565b7f50726f647563746f206e6f206578697374650000000000000000000000000000600082015250565b60006129ed6012836128ce565b91506129f8826129b7565b602082019050919050565b60006020820190508181036000830152612a1c816129e0565b9050919050565b7f456c2070726f647563746f206573746120646573686162696c697461646f0000600082015250565b6000612a59601e836128ce565b9150612a6482612a23565b602082019050919050565b60006020820190508181036000830152612a8881612a4c565b9050919050565b7f4e487b7100000000000000000000000000000000000000000000000000000000600052601260045260246000fd5b6000612ac9826123b2565b9150612ad4836123b2565b925082612ae457612ae3612a8f565b5b828204905092915050565b6000604082019050612b0460008301856125ea565b612b1160208301846125ea565b9392505050565b7f4e6f206861792073746f636b2064656c2070726f647563746f00000000000000600082015250565b6000612b4e6019836128ce565b9150612b5982612b18565b602082019050919050565b60006020820190508181036000830152612b7d81612b41565b9050919050565b6000612b8f826123b2565b9150612b9a836123b2565b9250828202612ba8816123b2565b91508282048414831517612bbf57612bbe612828565b5b5092915050565b7f456c2076616c6f7220696e6772657361646f206e6f20657320656c20646f626c60008201527f6500000000000000000000000000000000000000000000000000000000000000602082015250565b6000612c226021836128ce565b9150612c2d82612bc6565b604082019050919050565b60006020820190508181036000830152612c5181612c15565b9050919050565b7f216d73672e76616c756500000000000000000000000000000000000000000000600082015250565b6000612c8e600a836128ce565b9150612c9982612c58565b602082019050919050565b60006020820190508181036000830152612cbd81612c81565b9050919050565b6000608082019050612cd960008301876125ea565b612ce660208301866125c0565b612cf360408301856125ea565b612d0060608301846125ea565b95945050505050565b6000612d14826123b2565b9150612d1f836123b2565b9250828203905081811115612d3757612d36612828565b5b92915050565b7f496e677265736520756e2069642076616c69646f000000000000000000000000600082015250565b6000612d736014836128ce565b9150612d7e82612d3d565b602082019050919050565b60006020820190508181036000830152612da281612d66565b9050919050565b7f496e677265736520756e206e756d65726f206d61796f72206120300000000000600082015250565b6000612ddf601b836128ce565b9150612dea82612da9565b602082019050919050565b60006020820190508181036000830152612e0e81612dd2565b9050919050565b6000612e20826123b2565b9150612e2b836123b2565b9250828201905080821115612e4357612e42612828565b5b92915050565b7f4e6f206861792073746f636b20737566696369656e7465000000000000000000600082015250565b6000612e7f6017836128ce565b9150612e8a82612e49565b602082019050919050565b60006020820190508181036000830152612eae81612e72565b9050919050565b7f496e677265736520756e206964206d61796f7220612030000000000000000000600082015250565b6000612eeb6017836128ce565b9150612ef682612eb5565b602082019050919050565b60006020820190508181036000830152612f1a81612ede565b9050919050565b7f496e677265736520756e2070726563696f206d61796f72206120300000000000600082015250565b6000612f57601b836128ce565b9150612f6282612f21565b602082019050919050565b60006020820190508181036000830152612f8681612f4a565b9050919050565b7f496e677265736520756e6120646972656363696f6e2076616c69646100000000600082015250565b6000612fc3601c836128ce565b9150612fce82612f8d565b602082019050919050565b60006020820190508181036000830152612ff281612fb6565b9050919050565b7f496e677265736520756e2073746f636b206d61796f7220612030000000000000600082015250565b600061302f601a836128ce565b915061303a82612ff9565b602082019050919050565b6000602082019050818103600083015261305e81613022565b9050919050565b7f50726f647563746f207961206578697374650000000000000000000000000000600082015250565b600061309b6012836128ce565b91506130a682613065565b602082019050919050565b600060208201905081810360008301526130ca8161308e565b9050919050565b60006020820190506130e660008301846125ea565b92915050565b7f4f776e61626c653a206e6577206f776e657220697320746865207a65726f206160008201527f6464726573730000000000000000000000000000000000000000000000000000602082015250565b60006131486026836128ce565b9150613153826130ec565b604082019050919050565b600060208201905081810360008301526131778161313b565b9050919050565b7f4f776e61626c653a2063616c6c6572206973206e6f7420746865206f776e6572600082015250565b60006131b46020836128ce565b91506131bf8261317e565b602082019050919050565b600060208201905081810360008301526131e3816131a7565b905091905056fea26469706673582212203de6920ffa49140f2632be74c39c8e042420d2796438c4dbe72d33bd7c5ac68864736f6c63430008110033",
  "linkReferences": {},
  "deployedLinkReferences": {}
}